S01200004D7941767254657374312E7372656352
S11300000C943A000C9457000C9457000C9457002D
S11300100C9457000C9457000C9457000C94570000
S11300200C9457000C9457000C9457000C945700F0
S11300300C9457000C9457000C94E8030C9457004C
S11300400C9457000C9457000C948D030C94570097
S11300500C9457000C9457000C9457000C945700C0
S11300600C9457000C9457006364696E6F70737539
S113007078585B0011241FBECFEFD8E0DEBFCDBFA0
S113008012E0A0E0B1E0E6E8F4E102C005900D92D0
S1130090A037B107D9F724E0A0E7B2E001C01D9270
S11300A0A435B207E1F70E94F8010C94410A0C94BC
S11300B00000A4EFB3E0E7EFF2E047E753E021E00C
S11300C030E08D91B901681B71097183608373837A
S11300D062837096E417F507A1F70895EFE7F2E05D
S11300E04BEE52E021E030E021933193E417F50721
S11300F0D9F71092EC021092EB021092EE021092D9
S1130100ED021092F0021092EF021092F20210929D
S1130110F102E3EFF2E040E050E061E070E071836F
S11301206083738362839C01042E02C036952795F5
S11301300A94E2F721703327358324833783268397
S113014011861086138612861586148617861686DF
S11301504F5F5F4F70964031510509F70895299814
S1130160E0917402F0917502EE0FFF1FE158FD4F0C
S113017080819181892B11F0289A01C0289880915F
S113018074029091750201968B3B91052CF4909327
S113019075028093740204C0109275021092740266
S11301A0299A08954F9B0AC080917202909173021C
S11301B00196909373028093720208958091720263
S11301C090917302009731F18330910574F480911A
S11301D0700290917102FC01ED50FC4F158A01965A
S11301E0909371028093700215C044977CF48091BF
S11301F0700290917102FC01ED50FC4F21E0258BBF
S11302000196909371028093700204C0109271025F
S1130210109270021092730210927202089583E297
S113022084B957985F9A0895EF92FF920F931F93A2
S1130230CF93DF9300D000D01F92CDB7DEB780916B
S11302404004833709F045C0CE0104969F938F93F1
S113025002979F938F9301979F938F9380E091E0F0
S11302609F938F9380E494E09F938F930E9457040D
S11302708A819B810FB6F894DEBF0FBECDBF8D344B
S1130280910528F089E091E00E94CB03A5C02D815F
S11302902F932C812F939F938F9385E191E09F93CC
S11302A08F9380E494E09F938F930E94340480E4BE
S11302B094E00E94CB03EA81FB81ED50FC4F8C81DA
S11302C080830E9459000FB6F894DEBF0FBECDBFE5
S11302D083C0873609F043C0CE0102969F938F9363
S11302E001979F938F938DE191E09F938F9380E487
S11302F094E09F938F930E9457048A819B819C0171
S1130300215031090FB6F894DEBF0FBECDBF2C3497
S1130310310528F089E091E00E94CB035DC0FC0127
S1130320ED50FC4F2081422F50E05D834C831F929F
S11303302F939F938F9385E191E09F938F9380E414
S113034094E09F938F930E94340480E494E00E948D
S1130350CB030FB6F894DEBF0FBECDBF3DC08F36C2
S1130360D9F483E291E00E94CB030FE712E00F2E51
S1130370FFE8EF2EF2E0FF2EF02DF80180810E5FF2
S11303801F4F805D0E94C3030E151F05B1F782EF56
S113039091E00E94CB0320C08936D1F483E391E03D
S11303A00E94CB0308E014E00F2EF8E1EF2EF4E0F6
S11303B0FF2EF02DF80181918F01805D0E94C3030F
S11303C00E151F05B9F782EF91E00E94CB0304C01C
S11303D082E491E00E94CB030F900F900F900F9056
S11303E00F90DF91CF911F910F91FF90EF9008959F
S11303F00FB6F894A895809160008861809360009E
S1130400109260000FBE0E9422040E9481030E9489
S11304100F0180E090E00E946E008EE491E00E9463
S1130420CB0384E791E00E94CB0389EC91E00E9426
S1130430CB0385EF91E00E94CB03C3EFD3E0772495
S113044073940F2EF3E3CF2EF4E0DF2EF02D0F2E56
S1130450F4E3EF2EF4E0FF2EF02D05E314E00F2E6D
S1130460F6E38F2EF4E09F2EF02D6894222421F8D9
S11304700F2EF3E04F2EF02D0F2EF7E3AF2EF4E006
S1130480BF2EF02D0F2EFAE06F2EF02D552453942D
S1130490312C80917C02813021F40E94140110924D
S11304A07C0289A1811126C080917902813011F5E5
S11304B08981813081F42DAE2EAE2FAEF6012082DB
S11304C0F7012082F8012082F401208289E192E080
S11304D00E94CB030FC07DAE7EAE7FAEF60170826C
S11304E0F7017082F8017082F401708283E292E075
S11304F00E94CB0389A1809379028AA1811113C040
S113050080917802813079F44DAE4EAE4FAEF60153
S11305104082F7014082F8014082F40140828CE27B
S113052092E00E94CB038AA1809378028BA181116F
S113053014C080917702813081F48885813039F448
S1130540F501208287E392E00E94CB0306C0F50107
S1130550708282E492E00E94CB038BA180937702A5
S11305608CA181110AC080917602813031F4F501A9
S113057040828CE492E00E94CB038CA180937602AB
S11305808D89811105C06BAA88E592E00E94CB0396
S11305908E89811105C06CAA8BE592E00E94CB0381
S11305A08F89811105C06DAA8EE592E00E94CB036C
S11305B0888D811105C06EAA81E692E00E94CB036A
S11305C0898D811105C06FAA84E692E00E94CB0355
S11305D08A8D811105C068AE87E692E00E94CB0344
S11305E08B8D811105C069AE8AE692E00E94CB032F
S11305F08C8D811106C0FEE1FAAF8DE692E00E9477
S1130600CB038DAD813041F0833041F4852D9BA91E
S1130610911105C0832D03C0872D01C080E089831B
S11306208EAD813041F0833041F4852D9CA9911128
S113063005C0832D03C0872D01C080E08A838FAD60
S1130640813041F0833041F4852D9DA9911105C07D
S1130650832D03C0872D01C080E08B83F601808148
S1130660813041F0833041F4852D9EA9911105C05C
S1130670832D03C0872D01C080E08C83F701808126
S1130680813041F0833041F4852D9FA9911105C03B
S1130690832D03C0872D01C080E08D83F801808104
S11306A0813041F0833041F4852D98AD911105C01E
S11306B0832D03C0872D01C080E08E83F4018081E7
S11306C0813041F0833041F4852D99AD911105C0FD
S11306D0832D03C0872D01C080E08F83F5018081C5
S11306E0813041F0833041F4852D9AAD911105C0DC
S11306F0832D03C0872D01C080E088870E945900A4
S1130700C8CE1092C50087E68093C40088E9809320
S1130710C10086E08093C20008951F920F920FB625
S11307200F9211248F939F93EF93FF938091C600B0
S113073080937B0290917C0291111CC08A3031F02D
S11307408D3021F0E0917A02E43160F0E0917A0298
S1130750F0E0E05CFB4F108210927A0281E080931B
S11307607C0208C091E09E0F90937A02F0E0E05C76
S1130770FB4F8083FF91EF919F918F910F900FBE5C
S11307800F901F901895E0ECF0E0908195FFFDCF5D
S11307908093C6000895CF93DF93EC01888188236A
S11307A031F021960E94C30389918111FBCFDF911F
S11307B0CF910895E6E2F4E02EE234E080818823CC
S11307C011F0815080833196E217F307B9F7089549
S11307D01F920F920FB60F9211242F933F934F93B2
S11307E05F936F937F938F939F93AF93BF93EF9395
S11307F0FF930E94AF000E94D20080917E028F5F1F
S113080080937E02883768F080917D028F5F8093A9
S11308107D02853620F00E94DA0310927D02109248
S11308207E02FF91EF91BF91AF919F918F917F9144
S11308306F915F914F913F912F910F900FBE0F9049
S11308401F901895F89414BC15BC84E187BD84B539
S1130850826084BD85B5836085BDEEE6F0E080816D
S11308608260808378940895AEE0B0E0EAE3F4E037
S11308700C94180A0D891E8986E08C831A830983D7
S11308808FEF9FE79E838D83AE01475E5F4F6F8935
S1130890788DCE0101960E9470042F813885F8016D
S11308A0E20FF31F10822E96E4E00C94340AAEE0BB
S11308B0B0E0EDE5F4E00C941A0A85E08C838B89B2
S11308C09C899A838983AE01495E5F4F6D897E89D5
S11308D0CE0101960E94C2072E96E2E00C94360ADD
S11308E0ACE0B0E0E6E7F4E00C940A0A7C016B01AA
S11308F08A01FC0117821682838181FFBDC1CE016A
S113090001964C01F7019381F60193FD859193FFC4
S113091081916F01882309F4ABC1853239F493FDC9
S1130920859193FF81916F01853229F4B70190E09D
S11309300E945809E7CF512C312C20E02032A0F43A
S11309408B3269F030F4803259F0833269F42061DB
S11309502CC08D3239F0803339F4216026C02260F6
S1130960246023C0286021C027FD27C030ED380F44
S11309703A3078F426FF06C0FAE05F9E300D112469
S1130980532E13C08AE0389E300D1124332E20627A
S11309900CC08E3221F426FD6BC1206406C08C3657
S11309A011F4206802C0883641F4F60193FD859164
S11309B093FF81916F018111C1CF982F9F7D955431
S11309C0933028F40C5F1F4FFFE3F9830DC0833687
S11309D031F0833771F0833509F05BC022C0F80130
S11309E0808189830E5F1F4F44244394512C54010A
S11309F015C03801F2E06F0E711CF801A080B180BF
S1130A0026FF03C0652D70E002C06FEF7FEFC501C4
S1130A102C870E940F092C0183012C852F77222E0D
S1130A2017C03801F2E06F0E711CF801A080B1808C
S1130A3026FF03C0652D70E002C06FEF7FEFC50194
S1130A402C870E9404092C012C852068222E830106
S1130A5023FC1BC0832D90E048165906B0F4B7015F
S1130A6080E290E00E9458093A94F4CFF50127FC03
S1130A70859127FE81915F01B70190E00E9458099A
S1130A8031103A94F1E04F1A51084114510471F7AE
S1130A90E5C0843611F0893639F5F80127FF07C01F
S1130AA060817181828193810C5F1F4F08C06081D6
S1130AB07181072E000C880B990B0E5F1F4F2F7648
S1130AC0722E97FF09C090958095709561957F4F20
S1130AD08F4F9F4F2068722E2AE030E0A4010E94BD
S1130AE0A909A82EA81844C0853729F42F7EB22E50
S1130AF02AE030E025C0F22FF97FBF2E8F36C1F0F7
S1130B0018F4883579F0B4C0803719F0883721F0AB
S1130B10AFC02F2F2061B22EB4FE0DC08B2D846088
S1130B20B82E09C024FF0AC09F2F9660B92E06C0B4
S1130B3028E030E005C020E130E002C020E132E0EE
S1130B40F801B7FE07C060817181828193810C5FD7
S1130B501F4F06C06081718180E090E00E5F1F4FDF
S1130B60A4010E94A909A82EA818FB2DFF777F2EA7
S1130B7076FE0BC0372D3E7FA51450F474FE0AC0D8
S1130B8072FC08C0372D3E7E05C0BA2C372D03C039
S1130B90BA2C01C0B52C34FF0DC0FE01EA0DF11DC5
S1130BA08081803311F4397E09C032FF06C0B394CA
S1130BB0B39404C0832F867809F0B39433FD13C033
S1130BC030FF06C05A2CB31418F4530C5B18B32C22
S1130BD0B31468F4B70180E290E03C870E9458099E
S1130BE0B3943C85F5CFB31410F43B1801C0312CF9
S1130BF034FF12C0B70180E390E03C870E9458099B
S1130C003C8532FF17C031FD03C088E790E002C085
S1130C1088E590E0B7010CC0832F867859F031FF46
S1130C2002C08BE201C080E237FD8DE2B70190E0A3
S1130C300E945809A51438F4B70180E390E00E949B
S1130C4058095A94F7CFAA94F401EA0DF11D808152
S1130C50B70190E00E945809A110F5CF332009F4A0
S1130C6051CEB70180E290E00E9458093A94F6CF41
S1130C70F7018681978102C08FEF9FEF2C96E2E106
S1130C800C94260A20FD09C0FC0123FD05C022FFA7
S1130C9002C07383628351834083089544FD10C06E
S1130CA046FD10C0DB01FC01AA0FBB1FEE1FFF1F96
S1130CB01094D1F76A0F7B1F8E1F9F1F31E003C072
S1130CC033E001C034E0660F771F881F991F31504D
S1130CD0D1F7620F711D811D911D08950F931F930C
S1130CE0CF93DF938C01C8010E941A09EC0197FD90
S1130CF008C00E94F008892BB1F7B801CE010E9408
S1130D009009CE01DF91CF911F910F910895A1E039
S1130D10B0E0EDE8F6E00C94100A8C01C62E7A01DE
S1130D2029830E941A09AC01552729814B325105A8
S1130D3021F04D32510569F42068CA94C11002C0F3
S1130D4080E076C0C80129830E941A09298197FD91
S1130D50F7CF322F3D7FD32E322F307349F58033B6
S1130D6039F5BB24BA94BC0C09F44EC0C8012983DC
S1130D700E941A09298197FD47C0382F3F7D3835D5
S1130D8069F48D2D8264D82ECA94CA94CC20E1F1E2
S1130D90C8010E941A0997FF0BC036C026FF04C081
S1130DA02D2D2260D22E03C03D2D3261D32ECB2CAB
S1130DB0812C912C540120ED280F283080F0D4FE92
S1130DC004C0B8010E9490091CC02A3040F0D6FE2D
S1130DD0F8CF2F7D3FEE320F363098F727504D2D48
S1130DE0C501B4010E944E064B015C018D2D826049
S1130DF0D82ECA94CC2059F0C8010E941A0997FF32
S1130E00DACFD1FC04C09CCF812C912C5401D7FEA5
S1130E1008C0B094A09490948094811C911CA11C4F
S1130E20B11C2D2DB501A401C7010E94420681E029
S1130E302196ECE00C942C0AA1E2B0E0E2E2F7E0A7
S1130E400C940E0A5C017A01CE0101966C0180E2D9
S1130E50F60111928A95E9F7F501838040E050E0AC
S1130E60912C712C70E0A1E0B0E0F90183FC859134
S1130E7083FE81918F01982F9F01811103C080E02F
S1130E8090E07CC08E3519F44115510549F1E72FE6
S1130E90F0E0E417F5073CF48D3559F18D3219F47F
S1130EA0772001F103C0711001C0982E892F869517
S1130EB0869586958601080F111D892F87703D013F
S1130EC001C0660C8A95EAF7F8018081862980833F
S1130ED0991559F0991510F49F5FE8CF9150E6CF1A
S1130EE071E004C07724739401C0712C4F5F5F4F8D
S1130EF0BCCF772019F08E8180628E83711103C07C
S1130F009924939416C0F6019E012F5D3F4F808172
S1130F1080958193E217F307D1F7F2CFE114F1043E
S1130F2029F0F7018083C70101967C016150912C5F
S1130F30F9F0C50169A30E941A0969A197FD16C0B9
S1130F40282F269526952695F601E20FF11D20817E
S1130F5030E0AC014770552702C0359527954A9576
S1130F60E2F720FDDBCFB5010E949009911087CFF5
S1130F70E114F10411F0F7011082C801A196EEE02A
S1130F800C942A0A4F925F927F928F929F92AF9213
S1130F90BF92CF92DF92EF92FF920F931F93CF9362
S1130FA0DF931F92CDB7DEB76C012B015A01FC0110
S1130FB017821682712CF601F380F201F3FC8591FD
S1130FC0F3FE8191382F2F01882309F4F3C090E0B8
S1130FD039830E94F0083981892B21F0C6010E94CF
S1130FE06E06E9CF353241F4F201F3FC3591F3FE9C
S1130FF031912F01353269F4C60139830E941A09EF
S1131000398197FDD5C03817B1F2B6010E94900915
S1131010D1C03A3239F4F3FC3591F3FE31912F010A
S113102051E001C050E0420110E020ED230F2A30CE
S113103090F45260612F70E080E090E040E25983C8
S11310400E944E06162FF401F3FC3591F3FE319104
S11310504F015981EACF052F232F240151FF03C0EB
S1131060111102C0A7C01FEF383619F03C3659F0F1
S113107011C0F401F3FC2591F3FE21912F012836D0
S113108049F4052F08600460F201F3FC2591F3FE96
S113109021912F01222309F48DC0622F70E088E68C
S11310A090E029830E94F9082981892B09F482C0E0
S11310B000FD07C0F501E080F180C50102965C01E6
S11310C002C0E12CF12C2E3651F4F60146815781F1
S11310D060E070E0202FC7010E9442066CCF2336E7
S11310E091F401FF11E0C6010E941A0997FD60C046
S11310F0E114F10429F0F7018083C70101967C0112
S1131100115089F751C02B3559F49201A701612F71
S1131110C6010E941C072C01892B09F045C03FC061
S1131120C60129830E946E06298197FD41C02F368E
S113113059F128F4243631F1293649F127C02337EF
S113114069F02537F9F022C0E114F10429F0F70120
S11311508082C70101967C01115071F0C6010E9482
S11311601A094C0197FD08C00E94F008892B61F30D
S1131170B601C4010E949009E114F104A9F0F70139
S1131180108212C0006203C0006101C00064202FFD
S1131190A701612FC6010E948706811105C0F601CF
S11311A08381807329F406C000FD05CF739403CFB7
S11311B0772019F0872D90E002C08FEF9FEF0F90FA
S11311C0DF91CF911F910F91FF90EF90DF90CF901F
S11311D0BF90AF909F908F907F905F904F900895B5
S11311E091110C94070A803219F089508550C8F780
S11311F00895FC010590061621F00020D9F7C001DE
S113120008953197CF010895FC0105906150704015
S11312100110D8F7809590958E0F9F1F0895FC01BB
S11312206150704001900110D8F7809590958E0F11
S11312309F1F0895CF93DF93EC012B8120FF33C0D0
S113124026FF0AC02F7B2B838E819F8101969F836B
S11312508E838A8190E029C022FF0FC0E881F98142
S11312608081082E000C990B009719F420622B83BF
S11312701AC03196F983E8830EC0EA85FB85099587
S113128097FF09C02B81019611F080E201C080E133
S1131290822B8B8308C02E813F812F5F3F4F3F837A
S11312A02E83992702C08FEF9FEFDF91CF9108958E
S11312B00F931F93CF93DF93FB01238121FD03C081
S11312C08FEF9FEF28C022FF16C0468157812481EB
S11312D035814217530744F4A081B1819D012F5FEA
S11312E03F4F318320838C93268137812F5F3F4F7B
S11312F03783268310C0EB01092F182F0084F18552
S1131300E02D0995892BE1F68E819F8101969F83BB
S11313108E83812F902FDF91CF911F910F9108958C
S1131320FB01238120FF12C026FD10C08F3F3FEF39
S1131330930761F082832F7D206423832681378184
S11313402150310937832683992708958FEF9FEF22
S11313500895FA01AA27283051F1203181F1E89447
S11313606F936E7F6E5F7F4F8F4F9F4FAF4FB1E094
S11313703ED0B4E03CD0670F781F891F9A1FA11D8F
S1131380680F791F8A1F911DA11D6A0F711D811D90
S1131390911DA11D20D009F468943F912AE0269F55
S11313A011243019305D3193DEF6CF010895462FB4
S11313B04770405D4193B3E00FD0C9F7F6CF462F95
S11313C04F70405D4A3318F0495D31FD40524193FE
S11313D002D0A9F7EACFB4E0A695979587957795BB
S11313E06795BA95C9F700976105710508959B0142
S11313F0AC010A2E06945795479537952795BA95CB
S1131400C9F7620F731F841F951FA01D08959927A4
S1131410882708952F923F924F925F926F927F9206
S11314208F929F92AF92BF92CF92DF92EF92FF92F0
S11314300F931F93CF93DF93CDB7DEB7CA1BDB0B9C
S11314400FB6F894DEBF0FBECDBF09942A88398841
S113145048885F846E847D848C849B84AA84B98448
S1131460C884DF80EE80FD800C811B81AA81B98154
S1131470CE0FD11D0FB6F894DEBF0FBECDBFED0168
S10914800895F894FFCF6B
S113148625632025642025640046656A6C3A20722B
S113149665670A0D0025643D25640A0D0025632051
S11314A62564004F7574707574205469636B733AC0
S11314B60A0D00496E707574205469636B733A0A99
S11314C60D0046656A6C3A20636D640A0D0049484E
S11314D643204F7574707574204D6F64756C652068
S11314E67631202D20323031372D30312D333120D5
S11314F6650A0D00526567205B20302D20385D207B
S11315064F7574707574206D6F64756C6520310A3F
S11315160D526567205B31302D31385D204F75746F
S1131526707574206D6F64756C6520320A0D526592
S113153667205B32302D33365D20496E707574201A
S11315464D6F64756C650A0D0053657420526567AA
S113155669737465723A2073203C7265673E203C59
S113156676616C3E2C20652E672E2027732033204F
S113157631270A0D004765742052656769737465DF
S1131586723A2067203C7265673E2C20652E672ED2
S11315962027672034270A0D004F5554204F46460E
S11315A60A0D004F5554204F4E0A0D004F55542036
S11315B64155544F0A0D00534B5552204F46460A87
S11315C60D00534B5552204F4E0A0D00534B5552A6
S11315D6204155544F0A0D0050310050320050330B
S11315E60050340050350050360050370050380053
S9030000FC
