:100000000C943A000C9457000C9457000C94570031
:100010000C9457000C9457000C9457000C94570004
:100020000C9457000C9457000C9457000C945700F4
:100030000C9457000C9457000C94DF030C94570059
:100040000C9457000C9457000C9484030C945700A4
:100050000C9457000C9457000C9457000C945700C4
:100060000C9457000C9457006364696E6F7073753D
:1000700078585B0011241FBECFEFD8E0DEBFCDBFA4
:1000800012E0A0E0B1E0E4E7F4E102C005900D92D7
:10009000AE36B107D9F724E0AEE6B2E001C01D925A
:1000A000A235B207E1F70E94F8010C94380A0C94CB
:1000B0000000A2EFB3E0E5EFF2E045E753E021E016
:1000C00030E08D91B901681B71097183608373837E
:1000D00062837096E417F507A1F70895EDE7F2E063
:1000E00049EE52E021E030E021933193E417F50727
:1000F000D9F71092EA021092E9021092EC021092E3
:10010000EB021092EE021092ED021092F0021092A9
:10011000EF02E1EFF2E040E050E061E070E0718377
:100120006083738362839C01042E02C036952795F9
:100130000A94E2F72170332735832483378326839B
:1001400011861086138612861586148617861686E3
:100150004F5F5F4F70964031510509F70895299818
:10016000E0917202F0917302EE0FFF1FE358FD4F12
:1001700080819181892B11F0289A01C02898809163
:1001800072029091730201968B3B91052CF490932F
:1001900073028093720204C0109273021092720272
:1001A000299A08954F9B0AC0809170029091710224
:1001B000019690937102809370020895809170026D
:1001C00090917102009731F18330910574F4809120
:1001D0006E0290916F02FC01EF50FC4F158A019660
:1001E00090936F0280936E0215C044977CF48091C7
:1001F0006E0290916F02FC01EF50FC4F21E0258BC5
:10020000019690936F0280936E0204C010926F0269
:1002100010926E021092710210927002089583E2A1
:1002200084B957985F9A0895EF92FF920F931F93A6
:10023000CF93DF9300D000D01F92CDB7DEB780916F
:100240003E04833709F045C0CE0104969F938F93F7
:1002500002979F938F9301979F938F9380E091E0F4
:100260009F938F938EE394E09F938F930E944E040D
:100270008A819B810FB6F894DEBF0FBECDBF8D344F
:10028000910528F089E091E00E94C203A5C02D816C
:100290002F932C812F939F938F9385E191E09F93D0
:1002A0008F938EE394E09F938F930E942B048EE3B1
:1002B00094E00E94C203EA81FB81EF50FC4F8C81E5
:1002C00080830E9459000FB6F894DEBF0FBECDBFE9
:1002D00083C0873609F043C0CE0102969F938F9367
:1002E00001979F938F938DE191E09F938F938EE37E
:1002F00094E09F938F930E944E048A819B819C017E
:10030000215031090FB6F894DEBF0FBECDBF2C349B
:10031000310528F089E091E00E94C2035DC0FC0134
:10032000EF50FC4F2081422F50E05D834C831F92A1
:100330002F939F938F9385E191E09F938F938EE30B
:1003400094E09F938F930E942B048EE394E00E948D
:10035000C2030FB6F894DEBF0FBECDBF3DC08F36CF
:10036000D9F483E291E00E94C2030DE712E00F2E60
:10037000FDE8EF2EF2E0FF2EF02DF80180810E5FF8
:100380001F4F805D0E94BA030E151F05B1F782EF63
:1003900091E00E94C20320C08936D1F483E391E04A
:1003A0000E94C20306E014E00F2EF6E1EF2EF4E007
:1003B000FF2EF02DF80181918F01805D0E94BA031C
:1003C0000E151F05B9F782EF91E00E94C20304C029
:1003D00082E491E00E94C2030F900F900F900F9063
:1003E0000F90DF91CF911F910F91FF90EF900895A3
:1003F0000FB6F894A89580916000886180936000A2
:10040000109260000FBE0E9419040E9478030E949F
:100410000F0180E090E00E946E008EE491E00E9467
:10042000C20384E791E00E94C20389EC91E00E943C
:10043000C20385EF91E00E94C203C1EFD3E07724AD
:1004400073940F2EF1E3CF2EF4E0DF2EF02D0F2E5C
:10045000F2E3EF2EF4E0FF2EF02D03E314E00F2E75
:10046000F4E38F2EF4E09F2EF02D6894442441F89D
:100470000F2EF5E3AF2EF4E0BF2EF02D0F2EF8E790
:100480006F2EF02D0F2EFAEF2F2EF02D55245394B2
:10049000312C80917A02813021F40E941401109253
:1004A0007A0289A1811126C080917702813011F5ED
:1004B0008981813081F41DAE1EAE1FAEF60110821F
:1004C000F7011082F8011082F401108289E192E0B4
:1004D0000E94C2030FC07DAE7EAE7FAEF601708279
:1004E000F7017082F8017082F401708283E292E079
:1004F0000E94C20389A1809377028AA1811113C04F
:1005000080917602813079F44DAE4EAE4FAEF60159
:100510004082F7014082F8014082F40140828CE27F
:1005200092E00E94C2038AA1809376028BA181117E
:1005300014C080917502813081F48885813039F44E
:10054000F501108287E392E00E94C20306C0F50124
:10055000708282E492E00E94C2038BA180937502B4
:100560008CA181110AC080917402813031F4F501AF
:1005700040828CE492E00E94C2038CA180937402BA
:100580008D89811105C06BAA88E592E00E94C203A3
:100590008E89811105C06CAA8BE592E00E94C2038E
:1005A0008F89811105C06DAA8EE592E00E94C20379
:1005B000888D811105C06EAA81E692E00E94C20377
:1005C000898D811105C06FAA84E692E00E94C20362
:1005D0008A8D811105C068AE87E692E00E94C20351
:1005E0008C8D811105C02AAE8AE692E00E94C2037A
:1005F0008DAD813041F0823041F4852D9BA9911160
:1006000005C0832D03C0872D01C080E089838EAD96
:10061000813041F0823041F4852D9CA9911105C0B3
:10062000832D03C0872D01C080E08A838FAD813088
:1006300041F0823041F4852D9DA9911105C0832D93
:1006400003C0872D01C080E08B83F601808181305B
:1006500041F0823041F4852D9EA9911105C0832D72
:1006600003C0872D01C080E08C83F7018081813039
:1006700041F0823041F4852D9FA9911105C0832D51
:1006800003C0872D01C080E08D83F8018081813017
:1006900041F0823041F4852D98AD911105C0832D34
:1006A00003C0872D01C080E08E83F40180818130FA
:1006B00041F0823041F4852D99AD911105C0832D13
:1006C00003C0872D01C080E08F83F50180818130D8
:1006D00041F0823041F4852D9AAD911105C0832DF2
:1006E00003C0872D01C080E088870E945900D1CEC9
:1006F0001092C50087E68093C40088E98093C1000A
:1007000086E08093C20008951F920F920FB60F9259
:1007100011248F939F93EF93FF938091C600809352
:10072000790290917A0291111CC08A3031F08D309B
:1007300021F0E0917802E43160F0E0917802F0E09D
:10074000E25CFB4F10821092780281E080937A0283
:1007500008C091E09E0F90937802F0E0E25CFB4FBE
:100760008083FF91EF919F918F910F900FBE0F901B
:100770001F901895E0ECF0E0908195FFFDCF8093FD
:10078000C6000895CF93DF93EC018881882331F070
:1007900021960E94BA0389918111FBCFDF91CF91FD
:1007A0000895E4E2F4E02CE234E08081882311F043
:1007B000815080833196E217F307B9F708951F92AD
:1007C0000F920FB60F9211242F933F934F935F9385
:1007D0006F937F938F939F93AF93BF93EF93FF9309
:1007E0000E94AF000E94D20080917C028F5F8093B4
:1007F0007C02883768F080917B028F5F80937B0258
:10080000853620F00E94D10310927B0210927C0268
:10081000FF91EF91BF91AF919F918F917F916F91D8
:100820005F914F913F912F910F900FBE0F901F90AE
:100830001895F89414BC15BC84E187BD84B582601A
:1008400084BD85B5836085BDEEE6F0E08081826081
:10085000808378940895AEE0B0E0E1E3F4E00C9496
:100860000F0A0D891E8986E08C831A8309838FEF16
:100870009FE79E838D83AE01475E5F4F6F89788DC2
:10088000CE0101960E9467042F813885F801E20F9E
:10089000F31F10822E96E4E00C942B0AAEE0B0E039
:1008A000E4E5F4E00C94110A85E08C838B899C8943
:1008B0009A838983AE01495E5F4F6D897E89CE013F
:1008C00001960E94B9072E96E2E00C942D0AACE046
:1008D000B0E0EDE6F4E00C94010A7C016B018A01C2
:1008E000FC0117821682838181FFBDC1CE01019672
:1008F0004C01F7019381F60193FD859193FF81915E
:100900006F01882309F4ABC1853239F493FD8591D9
:1009100093FF81916F01853229F4B70190E00E9425
:100920004F09E7CF512C312C20E02032A0F48B323C
:1009300069F030F4803259F0833269F420612CC0C0
:100940008D3239F0803339F4216026C02260246072
:1009500023C0286021C027FD27C030ED380F3A3072
:1009600078F426FF06C0FAE05F9E300D1124532E66
:1009700013C08AE0389E300D1124332E20620CC043
:100980008E3221F426FD6BC1206406C08C3611F432
:10099000206802C0883641F4F60193FD859193FFEB
:1009A00081916F018111C1CF982F9F7D9554933014
:1009B00028F40C5F1F4FFFE3F9830DC0833631F03D
:1009C000833771F0833509F05BC022C0F801808164
:1009D00089830E5F1F4F44244394512C540115C04A
:1009E0003801F2E06F0E711CF801A080B18026FF83
:1009F00003C0652D70E002C06FEF7FEFC5012C874B
:100A00000E9406092C0183012C852F77222E17C006
:100A10003801F2E06F0E711CF801A080B18026FF52
:100A200003C0652D70E002C06FEF7FEFC5012C871A
:100A30000E94FB082C012C852068222E830123FCB8
:100A40001BC0832D90E048165906B0F4B70180E230
:100A500090E00E944F093A94F4CFF50127FC85916C
:100A600027FE81915F01B70190E00E944F0931108C
:100A70003A94F1E04F1A51084114510471F7E5C05E
:100A8000843611F0893639F5F80127FF07C06081F7
:100A90007181828193810C5F1F4F08C060817181D9
:100AA000072E000C880B990B0E5F1F4F2F76722EAE
:100AB00097FF09C090958095709561957F4F8F4FF6
:100AC0009F4F2068722E2AE030E0A4010E94A00906
:100AD000A82EA81844C0853729F42F7EB22E2AE00C
:100AE00030E025C0F22FF97FBF2E8F36C1F018F409
:100AF000883579F0B4C0803719F0883721F0AFC05D
:100B00002F2F2061B22EB4FE0DC08B2D8460B82E25
:100B100009C024FF0AC09F2F9660B92E06C028E0A6
:100B200030E005C020E130E002C020E132E0F80111
:100B3000B7FE07C060817181828193810C5F1F4F76
:100B400006C06081718180E090E00E5F1F4FA401BC
:100B50000E94A009A82EA818FB2DFF777F2E76FEF5
:100B60000BC0372D3E7FA51450F474FE0AC072FCF2
:100B700008C0372D3E7E05C0BA2C372D03C0BA2CD5
:100B800001C0B52C34FF0DC0FE01EA0DF11D8081BE
:100B9000803311F4397E09C032FF06C0B394B39498
:100BA00004C0832F867809F0B39433FD13C030FF5F
:100BB00006C05A2CB31418F4530C5B18B32CB3149E
:100BC00068F4B70180E290E03C870E944F09B3943B
:100BD0003C85F5CFB31410F43B1801C0312C34FF21
:100BE00012C0B70180E390E03C870E944F093C852A
:100BF00032FF17C031FD03C088E790E002C088E5EE
:100C000090E0B7010CC0832F867859F031FF02C005
:100C10008BE201C080E237FD8DE2B70190E00E94D7
:100C20004F09A51438F4B70180E390E00E944F0902
:100C30005A94F7CFAA94F401EA0DF11D8081B7010F
:100C400090E00E944F09A110F5CF332009F451CE56
:100C5000B70180E290E00E944F093A94F6CFF70185
:100C60008681978102C08FEF9FEF2C96E2E10C9472
:100C70001D0A20FD09C0FC0123FD05C022FF02C0A2
:100C80007383628351834083089544FD10C046FD01
:100C900010C0DB01FC01AA0FBB1FEE1FFF1F109449
:100CA000D1F76A0F7B1F8E1F9F1F31E003C033E017
:100CB00001C034E0660F771F881F991F3150D1F7AC
:100CC000620F711D811D911D08950F931F93CF9386
:100CD000DF938C01C8010E941109EC0197FD08C047
:100CE0000E94E708892BB1F7B801CE010E9487095D
:100CF000CE01DF91CF911F910F910895A1E0B0E057
:100D0000E4E8F6E00C94070A8C01C62E7A012983E8
:100D10000E941109AC01552729814B32510521F060
:100D20004D32510569F42068CA94C11002C080E0B8
:100D300076C0C80129830E941109298197FDF7CF48
:100D4000322F3D7FD32E322F307349F5803339F562
:100D5000BB24BA94BC0C09F44EC0C80129830E947C
:100D60001109298197FD47C0382F3F7D383569F437
:100D70008D2D8264D82ECA94CA94CC20E1F1C8018A
:100D80000E94110997FF0BC036C026FF04C02D2D0D
:100D90002260D22E03C03D2D3261D32ECB2C812C6C
:100DA000912C540120ED280F283080F0D4FE04C08F
:100DB000B8010E9487091CC02A3040F0D6FEF8CF47
:100DC0002F7D3FEE320F363098F727504D2DC5015D
:100DD000B4010E9445064B015C018D2D8260D82E26
:100DE000CA94CC2059F0C8010E94110997FFDACFAC
:100DF000D1FC04C09CCF812C912C5401D7FE08C09B
:100E0000B094A09490948094811C911CA11CB11C5E
:100E10002D2DB501A401C7010E94390681E021965C
:100E2000ECE00C94230AA1E2B0E0E9E1F7E00C94D5
:100E3000050A5C017A01CE0101966C0180E2F6019F
:100E400011928A95E9F7F501838040E050E0912CFA
:100E5000712C70E0A1E0B0E0F90183FC859183FE84
:100E600081918F01982F9F01811103C080E090E054
:100E70007CC08E3519F44115510549F1E72FF0E09A
:100E8000E417F5073CF48D3559F18D3219F47720CC
:100E900001F103C0711001C0982E892F86958695A7
:100EA00086958601080F111D892F87703D0101C0AD
:100EB000660C8A95EAF7F801808186298083991566
:100EC00059F0991510F49F5FE8CF9150E6CF71E08B
:100ED00004C07724739401C0712C4F5F5F4FBCCF67
:100EE000772019F08E8180628E83711103C099245E
:100EF000939416C0F6019E012F5D3F4F808180952F
:100F00008193E217F307D1F7F2CFE114F10429F04E
:100F1000F7018083C70101967C016150912CF9F0A3
:100F2000C50169A30E94110969A197FD16C0282F68
:100F3000269526952695F601E20FF11D208130E0D9
:100F4000AC014770552702C0359527954A95E2F7C1
:100F500020FDDBCFB5010E948709911087CFE114F6
:100F6000F10411F0F7011082C801A196EEE00C9493
:100F7000210A4F925F927F928F929F92AF92BF927F
:100F8000CF92DF92EF92FF920F931F93CF93DF9355
:100F90001F92CDB7DEB76C012B015A01FC011782FD
:100FA0001682712CF601F380F201F3FC8591F3FEB9
:100FB0008191382F2F01882309F4F3C090E0398301
:100FC0000E94E7083981892B21F0C6010E9465063D
:100FD000E9CF353241F4F201F3FC3591F3FE319162
:100FE0002F01353269F4C60139830E941109398114
:100FF00097FDD5C03817B1F2B6010E948709D1C05C
:101000003A3239F4F3FC3591F3FE31912F0151E07E
:1010100001C050E0420110E020ED230F2A3090F48F
:101020005260612F70E080E090E040E259830E94BE
:101030004506162FF401F3FC3591F3FE31914F0173
:101040005981EACF052F232F240151FF03C011112D
:1010500002C0A7C01FEF383619F03C3659F011C056
:10106000F401F3FC2591F3FE21912F01283649F478
:10107000052F08600460F201F3FC2591F3FE219135
:101080002F01222309F48DC0622F70E088E690E0E2
:1010900029830E94F0082981892B09F482C000FD70
:1010A00007C0F501E080F180C50102965C0102C035
:1010B000E12CF12C2E3651F4F6014681578160E087
:1010C00070E0202FC7010E9439066CCF233691F4BF
:1010D00001FF11E0C6010E94110997FD60C0E114F3
:1010E000F10429F0F7018083C70101967C011150BA
:1010F00089F751C02B3559F49201A701612FC60120
:101100000E9413072C01892B09F045C03FC0C6017E
:1011100029830E946506298197FD41C02F3659F128
:1011200028F4243631F1293649F127C0233769F0F4
:101130002537F9F022C0E114F10429F0F70180828B
:10114000C70101967C01115071F0C6010E9411097E
:101150004C0197FD08C00E94E708892B61F3B60196
:10116000C4010E948709E114F104A9F0F70110827B
:1011700012C0006203C0006101C00064202FA701FB
:10118000612FC6010E947E06811105C0F601838190
:10119000807329F406C000FD05CF739403CF772038
:1011A00019F0872D90E002C08FEF9FEF0F90DF9135
:1011B000CF911F910F91FF90EF90DF90CF90BF9054
:1011C000AF909F908F907F905F904F900895911176
:1011D0000C94FE09803219F089508550C8F70895A3
:1011E000FC010590061621F00020D9F7C0010895F2
:1011F0003197CF010895FC010590615070400110B6
:10120000D8F7809590958E0F9F1F0895FC0161502F
:10121000704001900110D8F7809590958E0F9F1F18
:101220000895CF93DF93EC012B8120FF33C026FF7D
:101230000AC02F7B2B838E819F8101969F838E8393
:101240008A8190E029C022FF0FC0E881F981808166
:10125000082E000C990B009719F420622B831AC0FA
:101260003196F983E8830EC0EA85FB85099597FFDF
:1012700009C02B81019611F080E201C080E1822B30
:101280008B8308C02E813F812F5F3F4F3F832E838A
:10129000992702C08FEF9FEFDF91CF9108950F93B1
:1012A0001F93CF93DF93FB01238121FD03C08FEFB9
:1012B0009FEF28C022FF16C04681578124813581C7
:1012C0004217530744F4A081B1819D012F5F3F4F26
:1012D000318320838C93268137812F5F3F4F378363
:1012E000268310C0EB01092F182F0084F185E02D13
:1012F0000995892BE1F68E819F8101969F838E83CC
:10130000812F902FDF91CF911F910F910895FB01B5
:10131000238120FF12C026FD10C08F3F3FEF9307AF
:1013200061F082832F7D20642383268137812150C1
:10133000310937832683992708958FEF9FEF08950A
:10134000FA01AA27283051F1203181F1E8946F93F6
:101350006E7F6E5F7F4F8F4F9F4FAF4FB1E03ED09C
:10136000B4E03CD0670F781F891F9A1FA11D680F3A
:10137000791F8A1F911DA11D6A0F711D811D911D6D
:10138000A11D20D009F468943F912AE0269F1124E2
:101390003019305D3193DEF6CF010895462F477046
:1013A000405D4193B3E00FD0C9F7F6CF462F4F70A1
:1013B000405D4A3318F0495D31FD4052419302D0FF
:1013C000A9F7EACFB4E0A6959795879577956795A5
:1013D000BA95C9F700976105710508959B01AC01A5
:1013E0000A2E06945795479537952795BA95C9F7CC
:1013F000620F731F841F951FA01D089599278827CA
:1014000008952F923F924F925F926F927F928F92A8
:101410009F92AF92BF92CF92DF92EF92FF920F9383
:101420001F93CF93DF93CDB7DEB7CA1BDB0B0FB68D
:10143000F894DEBF0FBECDBF09942A88398848884A
:101440005F846E847D848C849B84AA84B984C884E0
:10145000DF80EE80FD800C811B81AA81B981CE0FD7
:10146000D11D0FB6F894DEBF0FBECDBFED010895BC
:04147000F894FFCF1E
:1014740025632025642025640046656A6C3A207241
:1014840065670A0D0025643D25640A0D0025632067
:101494002564004F7574707574205469636B733AD6
:1014A4000A0D00496E707574205469636B733A0AAF
:1014B4000D0046656A6C3A20636D640A0D00494864
:1014C40043204F7574707574204D6F64756C65207E
:1014D4007631202D20323031372D30312D333120EB
:1014E400650A0D00526567205B20302D20385D2091
:1014F4004F7574707574206D6F64756C6520310A56
:101504000D526567205B31302D31385D204F757485
:10151400707574206D6F64756C6520320A0D5265A8
:1015240067205B32302D33365D20496E7075742030
:101534004D6F64756C650A0D0053657420526567C0
:1015440069737465723A2073203C7265673E203C6F
:1015540076616C3E2C20652E672E20277320332065
:1015640031270A0D004765742052656769737465F5
:10157400723A2067203C7265673E2C20652E672EE8
:101584002027672034270A0D004F5554204F464624
:101594000A0D004F5554204F4E0A0D004F5554204C
:1015A4004155544F0A0D00534B5552204F46460A9D
:1015B4000D00534B5552204F4E0A0D00534B5552BC
:1015C400204155544F0A0D00503100503200503321
:0E15D4000050340050350050360050380000F2
:00000001FF
